{
  "address": "0x58f1Ad7461dE37c487F12BED9B6702bae11e226C",
  "abi": [
    {
      "inputs": [
        {
          "internalType": "address",
          "name": "minter",
          "type": "address"
        }
      ],
      "stateMutability": "nonpayable",
      "type": "constructor"
    },
    {
      "inputs": [
        {
          "internalType": "bool",
          "name": "sent",
          "type": "bool"
        }
      ],
      "name": "FailedToWithdraw",
      "type": "error"
    },
    {
      "inputs": [
        {
          "internalType": "uint256",
          "name": "balance",
          "type": "uint256"
        }
      ],
      "name": "NoFundsToWithdraw",
      "type": "error"
    },
    {
      "inputs": [
        {
          "internalType": "address",
          "name": "to",
          "type": "address"
        },
        {
          "internalType": "uint256",
          "name": "",
          "type": "uint256"
        }
      ],
      "name": "NotEnoughValue",
      "type": "error"
    },
    {
      "inputs": [
        {
          "internalType": "address",
          "name": "to",
          "type": "address"
        }
      ],
      "name": "OnlyMinter",
      "type": "error"
    },
    {
      "anonymous": false,
      "inputs": [
        {
          "indexed": true,
          "internalType": "address",
          "name": "owner",
          "type": "address"
        },
        {
          "indexed": true,
          "internalType": "address",
          "name": "approved",
          "type": "address"
        },
        {
          "indexed": true,
          "internalType": "uint256",
          "name": "tokenId",
          "type": "uint256"
        }
      ],
      "name": "Approval",
      "type": "event"
    },
    {
      "anonymous": false,
      "inputs": [
        {
          "indexed": true,
          "internalType": "address",
          "name": "owner",
          "type": "address"
        },
        {
          "indexed": true,
          "internalType": "address",
          "name": "operator",
          "type": "address"
        },
        {
          "indexed": false,
          "internalType": "bool",
          "name": "approved",
          "type": "bool"
        }
      ],
      "name": "ApprovalForAll",
      "type": "event"
    },
    {
      "anonymous": false,
      "inputs": [
        {
          "indexed": true,
          "internalType": "address",
          "name": "owner",
          "type": "address"
        },
        {
          "indexed": false,
          "internalType": "uint256",
          "name": "amount",
          "type": "uint256"
        }
      ],
      "name": "FundsWithdrawn",
      "type": "event"
    },
    {
      "anonymous": false,
      "inputs": [
        {
          "indexed": true,
          "internalType": "address",
          "name": "to",
          "type": "address"
        },
        {
          "indexed": false,
          "internalType": "uint256",
          "name": "tokenId",
          "type": "uint256"
        }
      ],
      "name": "NewMint",
      "type": "event"
    },
    {
      "anonymous": false,
      "inputs": [
        {
          "indexed": true,
          "internalType": "address",
          "name": "previousOwner",
          "type": "address"
        },
        {
          "indexed": true,
          "internalType": "address",
          "name": "newOwner",
          "type": "address"
        }
      ],
      "name": "OwnershipTransferred",
      "type": "event"
    },
    {
      "anonymous": false,
      "inputs": [
        {
          "indexed": true,
          "internalType": "bytes32",
          "name": "role",
          "type": "bytes32"
        },
        {
          "indexed": true,
          "internalType": "bytes32",
          "name": "previousAdminRole",
          "type": "bytes32"
        },
        {
          "indexed": true,
          "internalType": "bytes32",
          "name": "newAdminRole",
          "type": "bytes32"
        }
      ],
      "name": "RoleAdminChanged",
      "type": "event"
    },
    {
      "anonymous": false,
      "inputs": [
        {
          "indexed": true,
          "internalType": "bytes32",
          "name": "role",
          "type": "bytes32"
        },
        {
          "indexed": true,
          "internalType": "address",
          "name": "account",
          "type": "address"
        },
        {
          "indexed": true,
          "internalType": "address",
          "name": "sender",
          "type": "address"
        }
      ],
      "name": "RoleGranted",
      "type": "event"
    },
    {
      "anonymous": false,
      "inputs": [
        {
          "indexed": true,
          "internalType": "bytes32",
          "name": "role",
          "type": "bytes32"
        },
        {
          "indexed": true,
          "internalType": "address",
          "name": "account",
          "type": "address"
        },
        {
          "indexed": true,
          "internalType": "address",
          "name": "sender",
          "type": "address"
        }
      ],
      "name": "RoleRevoked",
      "type": "event"
    },
    {
      "anonymous": false,
      "inputs": [
        {
          "indexed": true,
          "internalType": "address",
          "name": "from",
          "type": "address"
        },
        {
          "indexed": true,
          "internalType": "address",
          "name": "to",
          "type": "address"
        },
        {
          "indexed": true,
          "internalType": "uint256",
          "name": "tokenId",
          "type": "uint256"
        }
      ],
      "name": "Transfer",
      "type": "event"
    },
    {
      "inputs": [],
      "name": "DEFAULT_ADMIN_ROLE",
      "outputs": [
        {
          "internalType": "bytes32",
          "name": "",
          "type": "bytes32"
        }
      ],
      "stateMutability": "view",
      "type": "function"
    },
    {
      "inputs": [],
      "name": "MINTER_ROLE",
      "outputs": [
        {
          "internalType": "bytes32",
          "name": "",
          "type": "bytes32"
        }
      ],
      "stateMutability": "view",
      "type": "function"
    },
    {
      "inputs": [
        {
          "internalType": "address",
          "name": "to",
          "type": "address"
        },
        {
          "internalType": "uint256",
          "name": "tokenId",
          "type": "uint256"
        }
      ],
      "name": "approve",
      "outputs": [],
      "stateMutability": "nonpayable",
      "type": "function"
    },
    {
      "inputs": [
        {
          "internalType": "address",
          "name": "owner",
          "type": "address"
        }
      ],
      "name": "balanceOf",
      "outputs": [
        {
          "internalType": "uint256",
          "name": "",
          "type": "uint256"
        }
      ],
      "stateMutability": "view",
      "type": "function"
    },
    {
      "inputs": [
        {
          "internalType": "uint256",
          "name": "tokenId",
          "type": "uint256"
        }
      ],
      "name": "getApproved",
      "outputs": [
        {
          "internalType": "address",
          "name": "",
          "type": "address"
        }
      ],
      "stateMutability": "view",
      "type": "function"
    },
    {
      "inputs": [
        {
          "internalType": "bytes32",
          "name": "role",
          "type": "bytes32"
        }
      ],
      "name": "getRoleAdmin",
      "outputs": [
        {
          "internalType": "bytes32",
          "name": "",
          "type": "bytes32"
        }
      ],
      "stateMutability": "view",
      "type": "function"
    },
    {
      "inputs": [
        {
          "internalType": "bytes32",
          "name": "role",
          "type": "bytes32"
        },
        {
          "internalType": "address",
          "name": "account",
          "type": "address"
        }
      ],
      "name": "grantRole",
      "outputs": [],
      "stateMutability": "nonpayable",
      "type": "function"
    },
    {
      "inputs": [
        {
          "internalType": "bytes32",
          "name": "role",
          "type": "bytes32"
        },
        {
          "internalType": "address",
          "name": "account",
          "type": "address"
        }
      ],
      "name": "hasRole",
      "outputs": [
        {
          "internalType": "bool",
          "name": "",
          "type": "bool"
        }
      ],
      "stateMutability": "view",
      "type": "function"
    },
    {
      "inputs": [
        {
          "internalType": "address",
          "name": "owner",
          "type": "address"
        },
        {
          "internalType": "address",
          "name": "operator",
          "type": "address"
        }
      ],
      "name": "isApprovedForAll",
      "outputs": [
        {
          "internalType": "bool",
          "name": "",
          "type": "bool"
        }
      ],
      "stateMutability": "view",
      "type": "function"
    },
    {
      "inputs": [
        {
          "internalType": "address",
          "name": "_to",
          "type": "address"
        },
        {
          "components": [
            {
              "internalType": "uint256",
              "name": "tokenId",
              "type": "uint256"
            },
            {
              "internalType": "uint256",
              "name": "price",
              "type": "uint256"
            },
            {
              "internalType": "string",
              "name": "uri",
              "type": "string"
            },
            {
              "internalType": "bytes",
              "name": "signature",
              "type": "bytes"
            }
          ],
          "internalType": "struct LazyMint.LazyMintVoucher",
          "name": "_voucher",
          "type": "tuple"
        }
      ],
      "name": "mintNFT",
      "outputs": [],
      "stateMutability": "payable",
      "type": "function"
    },
    {
      "inputs": [],
      "name": "name",
      "outputs": [
        {
          "internalType": "string",
          "name": "",
          "type": "string"
        }
      ],
      "stateMutability": "view",
      "type": "function"
    },
    {
      "inputs": [],
      "name": "owner",
      "outputs": [
        {
          "internalType": "address",
          "name": "",
          "type": "address"
        }
      ],
      "stateMutability": "view",
      "type": "function"
    },
    {
      "inputs": [
        {
          "internalType": "uint256",
          "name": "tokenId",
          "type": "uint256"
        }
      ],
      "name": "ownerOf",
      "outputs": [
        {
          "internalType": "address",
          "name": "",
          "type": "address"
        }
      ],
      "stateMutability": "view",
      "type": "function"
    },
    {
      "inputs": [],
      "name": "renounceOwnership",
      "outputs": [],
      "stateMutability": "nonpayable",
      "type": "function"
    },
    {
      "inputs": [
        {
          "internalType": "bytes32",
          "name": "role",
          "type": "bytes32"
        },
        {
          "internalType": "address",
          "name": "account",
          "type": "address"
        }
      ],
      "name": "renounceRole",
      "outputs": [],
      "stateMutability": "nonpayable",
      "type": "function"
    },
    {
      "inputs": [
        {
          "internalType": "bytes32",
          "name": "role",
          "type": "bytes32"
        },
        {
          "internalType": "address",
          "name": "account",
          "type": "address"
        }
      ],
      "name": "revokeRole",
      "outputs": [],
      "stateMutability": "nonpayable",
      "type": "function"
    },
    {
      "inputs": [
        {
          "internalType": "address",
          "name": "from",
          "type": "address"
        },
        {
          "internalType": "address",
          "name": "to",
          "type": "address"
        },
        {
          "internalType": "uint256",
          "name": "tokenId",
          "type": "uint256"
        }
      ],
      "name": "safeTransferFrom",
      "outputs": [],
      "stateMutability": "nonpayable",
      "type": "function"
    },
    {
      "inputs": [
        {
          "internalType": "address",
          "name": "from",
          "type": "address"
        },
        {
          "internalType": "address",
          "name": "to",
          "type": "address"
        },
        {
          "internalType": "uint256",
          "name": "tokenId",
          "type": "uint256"
        },
        {
          "internalType": "bytes",
          "name": "data",
          "type": "bytes"
        }
      ],
      "name": "safeTransferFrom",
      "outputs": [],
      "stateMutability": "nonpayable",
      "type": "function"
    },
    {
      "inputs": [
        {
          "internalType": "address",
          "name": "operator",
          "type": "address"
        },
        {
          "internalType": "bool",
          "name": "approved",
          "type": "bool"
        }
      ],
      "name": "setApprovalForAll",
      "outputs": [],
      "stateMutability": "nonpayable",
      "type": "function"
    },
    {
      "inputs": [
        {
          "internalType": "bytes4",
          "name": "interfaceId",
          "type": "bytes4"
        }
      ],
      "name": "supportsInterface",
      "outputs": [
        {
          "internalType": "bool",
          "name": "",
          "type": "bool"
        }
      ],
      "stateMutability": "view",
      "type": "function"
    },
    {
      "inputs": [],
      "name": "symbol",
      "outputs": [
        {
          "internalType": "string",
          "name": "",
          "type": "string"
        }
      ],
      "stateMutability": "view",
      "type": "function"
    },
    {
      "inputs": [
        {
          "internalType": "uint256",
          "name": "tokenId",
          "type": "uint256"
        }
      ],
      "name": "tokenURI",
      "outputs": [
        {
          "internalType": "string",
          "name": "",
          "type": "string"
        }
      ],
      "stateMutability": "view",
      "type": "function"
    },
    {
      "inputs": [
        {
          "internalType": "address",
          "name": "from",
          "type": "address"
        },
        {
          "internalType": "address",
          "name": "to",
          "type": "address"
        },
        {
          "internalType": "uint256",
          "name": "tokenId",
          "type": "uint256"
        }
      ],
      "name": "transferFrom",
      "outputs": [],
      "stateMutability": "nonpayable",
      "type": "function"
    },
    {
      "inputs": [
        {
          "internalType": "address",
          "name": "newOwner",
          "type": "address"
        }
      ],
      "name": "transferOwnership",
      "outputs": [],
      "stateMutability": "nonpayable",
      "type": "function"
    },
    {
      "inputs": [],
      "name": "withdrawFunds",
      "outputs": [],
      "stateMutability": "payable",
      "type": "function"
    }
  ],
  "transactionHash": "0x40fddfe62c9169dae5ce0f925a40c64a80e0c92ca6d2e519f03728fc469f0d14",
  "args": [
    "0x4Cf6747BA3629BF85E581b60Cc774724fbBe0302"
  ],
  "numDeployments": 1,
  "solcInputHash": "8102bfcec986001aac84cc20582223cf",
  "bytecode": "0x6101406040523480156200001257600080fd5b5060405162004daf38038062004daf8339818101604052810190620000389190620005e6565b6040518060400160405280600b81526020017f4c617a792d446f6d61696e0000000000000000000000000000000000000000008152506040518060400160405280600181526020017f31000000000000000000000000000000000000000000000000000000000000008152506040518060400160405280600881526020017f4c617a794d696e740000000000000000000000000000000000000000000000008152506040518060400160405280600381526020017f4d544b0000000000000000000000000000000000000000000000000000000000815250816000908051906020019062000128929190620004cc565b50806001908051906020019062000141929190620004cc565b50505062000164620001586200024f60201b60201c565b6200025760201b60201c565b60008280519060200120905060008280519060200120905060007f8b73c3c69bb8fe3d512ecc4cf759cc79239f7b179b0ffacaa9a75d522b39400f90508260e081815250508161010081815250504660a08181525050620001cd8184846200031d60201b60201c565b608081815250503073ffffffffffffffffffffffffffffffffffffffff1660c08173ffffffffffffffffffffffffffffffffffffffff16815250508061012081815250505050505050620002487f9f2df0fed2c77648de5860a4cc508cd0818c85b8b8a1ab4ceeef8d981c8956a6826200035960201b60201c565b5062000721565b600033905090565b6000600760009054906101000a900473ffffffffffffffffffffffffffffffffffffffff16905081600760006101000a81548173ffffffffffffffffffffffffffffffffffffffff021916908373ffffffffffffffffffffffffffffffffffffffff1602179055508173ffffffffffffffffffffffffffffffffffffffff168173ffffffffffffffffffffffffffffffffffffffff167f8be0079c531659141344cd1fd0a4f28419497f9722a3daafe3b4186f6b6457e060405160405180910390a35050565b600083838346306040516020016200033a9594939291906200065f565b6040516020818303038152906040528051906020012090509392505050565b6200036b82826200036f60201b60201c565b5050565b6200038182826200046160201b60201c565b6200045d5760016008600084815260200190815260200160002060000160008373ffffffffffffffffffffffffffffffffffffffff1673ffffffffffffffffffffffffffffffffffffffff16815260200190815260200160002060006101000a81548160ff021916908315150217905550620004026200024f60201b60201c565b73ffffffffffffffffffffffffffffffffffffffff168173ffffffffffffffffffffffffffffffffffffffff16837f2f8788117e7eff1d82e926ec794901d17c78024a50270940304540a733656f0d60405160405180910390a45b5050565b60006008600084815260200190815260200160002060000160008373ffffffffffffffffffffffffffffffffffffffff1673ffffffffffffffffffffffffffffffffffffffff16815260200190815260200160002060009054906101000a900460ff16905092915050565b828054620004da90620006eb565b90600052602060002090601f016020900481019282620004fe57600085556200054a565b82601f106200051957805160ff19168380011785556200054a565b828001600101855582156200054a579182015b82811115620005495782518255916020019190600101906200052c565b5b5090506200055991906200055d565b5090565b5b80821115620005785760008160009055506001016200055e565b5090565b600080fd5b600073ffffffffffffffffffffffffffffffffffffffff82169050919050565b6000620005ae8262000581565b9050919050565b620005c081620005a1565b8114620005cc57600080fd5b50565b600081519050620005e081620005b5565b92915050565b600060208284031215620005ff57620005fe6200057c565b5b60006200060f84828501620005cf565b91505092915050565b6000819050919050565b6200062d8162000618565b82525050565b6000819050919050565b620006488162000633565b82525050565b6200065981620005a1565b82525050565b600060a08201905062000676600083018862000622565b62000685602083018762000622565b62000694604083018662000622565b620006a360608301856200063d565b620006b260808301846200064e565b9695505050505050565b7f4e487b7100000000000000000000000000000000000000000000000000000000600052602260045260246000fd5b600060028204905060018216806200070457607f821691505b602082108114156200071b576200071a620006bc565b5b50919050565b60805160a05160c05160e051610100516101205161463e620007716000396000612a2d01526000612a6f01526000612a4e01526000612983015260006129d901526000612a02015261463e6000f3fe6080604052600436106101665760003560e01c8063715018a6116100d1578063a22cb4651161008a578063d539139311610064578063d53913931461051e578063d547741f14610549578063e985e9c514610572578063f2fde38b146105af57610166565b8063a22cb4651461048f578063b88d4fde146104b8578063c87b56dd146104e157610166565b8063715018a61461039e5780638da5cb5b146103b557806391d14854146103e057806391e9ccec1461041d57806395d89b4114610439578063a217fddf1461046457610166565b8063248a9ca311610123578063248a9ca31461026c5780632f2ff15d146102a957806336568abe146102d257806342842e0e146102fb5780636352211e1461032457806370a082311461036157610166565b806301ffc9a71461016b57806306fdde03146101a8578063081812fc146101d3578063095ea7b31461021057806323b872dd1461023957806324600fc314610262575b600080fd5b34801561017757600080fd5b50610192600480360381019061018d9190612d22565b6105d8565b60405161019f9190612d6a565b60405180910390f35b3480156101b457600080fd5b506101bd6105fa565b6040516101ca9190612e1e565b60405180910390f35b3480156101df57600080fd5b506101fa60048036038101906101f59190612e76565b61068c565b6040516102079190612ee4565b60405180910390f35b34801561021c57600080fd5b5061023760048036038101906102329190612f2b565b6106d2565b005b34801561024557600080fd5b50610260600480360381019061025b9190612f6b565b6107ea565b005b61026a61084a565b005b34801561027857600080fd5b50610293600480360381019061028e9190612ff4565b61099c565b6040516102a09190613030565b60405180910390f35b3480156102b557600080fd5b506102d060048036038101906102cb919061304b565b6109bc565b005b3480156102de57600080fd5b506102f960048036038101906102f4919061304b565b6109dd565b005b34801561030757600080fd5b50610322600480360381019061031d9190612f6b565b610a60565b005b34801561033057600080fd5b5061034b60048036038101906103469190612e76565b610a80565b6040516103589190612ee4565b60405180910390f35b34801561036d57600080fd5b506103886004803603810190610383919061308b565b610b32565b60405161039591906130c7565b60405180910390f35b3480156103aa57600080fd5b506103b3610bea565b005b3480156103c157600080fd5b506103ca610bfe565b6040516103d79190612ee4565b60405180910390f35b3480156103ec57600080fd5b506104076004803603810190610402919061304b565b610c28565b6040516104149190612d6a565b60405180910390f35b61043760048036038101906104329190613106565b610c93565b005b34801561044557600080fd5b5061044e610e25565b60405161045b9190612e1e565b60405180910390f35b34801561047057600080fd5b50610479610eb7565b6040516104869190613030565b60405180910390f35b34801561049b57600080fd5b506104b660048036038101906104b1919061318e565b610ebe565b005b3480156104c457600080fd5b506104df60048036038101906104da9190613303565b610ed4565b005b3480156104ed57600080fd5b5061050860048036038101906105039190612e76565b610f36565b6040516105159190612e1e565b60405180910390f35b34801561052a57600080fd5b50610533610f48565b6040516105409190613030565b60405180910390f35b34801561055557600080fd5b50610570600480360381019061056b919061304b565b610f6c565b005b34801561057e57600080fd5b5061059960048036038101906105949190613386565b610f8d565b6040516105a69190612d6a565b60405180910390f35b3480156105bb57600080fd5b506105d660048036038101906105d1919061308b565b611021565b005b60006105e3826110a5565b806105f357506105f282611187565b5b9050919050565b606060008054610609906133f5565b80601f0160208091040260200160405190810160405280929190818152602001828054610635906133f5565b80156106825780601f1061065757610100808354040283529160200191610682565b820191906000526020600020905b81548152906001019060200180831161066557829003601f168201915b5050505050905090565b600061069782611201565b6004600083815260200190815260200160002060009054906101000a900473ffffffffffffffffffffffffffffffffffffffff169050919050565b60006106dd82610a80565b90508073ffffffffffffffffffffffffffffffffffffffff168373ffffffffffffffffffffffffffffffffffffffff16141561074e576040517f08c379a000000000000000000000000000000000000000000000000000000000815260040161074590613499565b60405180910390fd5b8073ffffffffffffffffffffffffffffffffffffffff1661076d61124c565b73ffffffffffffffffffffffffffffffffffffffff16148061079c575061079b8161079661124c565b610f8d565b5b6107db576040517f08c379a00000000000000000000000000000000000000000000000000000000081526004016107d29061352b565b60405180910390fd5b6107e58383611254565b505050565b6107fb6107f561124c565b8261130d565b61083a576040517f08c379a0000000000000000000000000000000000000000000000000000000008152600401610831906135bd565b60405180910390fd5b6108458383836113a2565b505050565b610852611609565b60004790506000811161089c57806040517f1d51cfe800000000000000000000000000000000000000000000000000000000815260040161089391906130c7565b60405180910390fd5b60003373ffffffffffffffffffffffffffffffffffffffff16826040516108c29061360e565b60006040518083038185875af1925050503d80600081146108ff576040519150601f19603f3d011682016040523d82523d6000602084013e610904565b606091505b505090508061094a57806040517f946ef7fb0000000000000000000000000000000000000000000000000000000081526004016109419190612d6a565b60405180910390fd5b3373ffffffffffffffffffffffffffffffffffffffff167feaff4b37086828766ad3268786972c0cd24259d4c87a80f9d3963a3c3d999b0d8360405161099091906130c7565b60405180910390a25050565b600060086000838152602001908152602001600020600101549050919050565b6109c58261099c565b6109ce81611687565b6109d8838361169b565b505050565b6109e561124c565b73ffffffffffffffffffffffffffffffffffffffff168173ffffffffffffffffffffffffffffffffffffffff1614610a52576040517f08c379a0000000000000000000000000000000000000000000000000000000008152600401610a4990613695565b60405180910390fd5b610a5c828261177c565b5050565b610a7b83838360405180602001604052806000815250610ed4565b505050565b6000806002600084815260200190815260200160002060009054906101000a900473ffffffffffffffffffffffffffffffffffffffff169050600073ffffffffffffffffffffffffffffffffffffffff168173ffffffffffffffffffffffffffffffffffffffff161415610b29576040517f08c379a0000000000000000000000000000000000000000000000000000000008152600401610b2090613701565b60405180910390fd5b80915050919050565b60008073ffffffffffffffffffffffffffffffffffffffff168273ffffffffffffffffffffffffffffffffffffffff161415610ba3576040517f08c379a0000000000000000000000000000000000000000000000000000000008152600401610b9a90613793565b60405180910390fd5b600360008373ffffffffffffffffffffffffffffffffffffffff1673ffffffffffffffffffffffffffffffffffffffff168152602001908152602001600020549050919050565b610bf2611609565b610bfc600061185e565b565b6000600760009054906101000a900473ffffffffffffffffffffffffffffffffffffffff16905090565b60006008600084815260200190815260200160002060000160008373ffffffffffffffffffffffffffffffffffffffff1673ffffffffffffffffffffffffffffffffffffffff16815260200190815260200160002060009054906101000a900460ff16905092915050565b6000610c9e82611924565b9050610cca7f9f2df0fed2c77648de5860a4cc508cd0818c85b8b8a1ab4ceeef8d981c8956a682610c28565b15610de35781602001353410610d9f57610ce8838360000135611996565b610d488260000135838060400190610d0091906137c2565b8080601f016020809104026020016040519081016040528093929190818152602001838380828437600081840152601f19601f820116905080830192505050505050506119b4565b8273ffffffffffffffffffffffffffffffffffffffff167f52277f0b4a9b555c5aa96900a13546f972bda413737ec164aac947c87eec60248360000135604051610d9291906130c7565b60405180910390a2610dde565b82346040517fe309554f000000000000000000000000000000000000000000000000000000008152600401610dd5929190613825565b60405180910390fd5b610e20565b826040517f4c41f6ce000000000000000000000000000000000000000000000000000000008152600401610e179190612ee4565b60405180910390fd5b505050565b606060018054610e34906133f5565b80601f0160208091040260200160405190810160405280929190818152602001828054610e60906133f5565b8015610ead5780601f10610e8257610100808354040283529160200191610ead565b820191906000526020600020905b815481529060010190602001808311610e9057829003601f168201915b5050505050905090565b6000801b81565b610ed0610ec961124c565b8383611a28565b5050565b610ee5610edf61124c565b8361130d565b610f24576040517f08c379a0000000000000000000000000000000000000000000000000000000008152600401610f1b906135bd565b60405180910390fd5b610f3084848484611b95565b50505050565b6060610f4182611bf1565b9050919050565b7f9f2df0fed2c77648de5860a4cc508cd0818c85b8b8a1ab4ceeef8d981c8956a681565b610f758261099c565b610f7e81611687565b610f88838361177c565b505050565b6000600560008473ffffffffffffffffffffffffffffffffffffffff1673ffffffffffffffffffffffffffffffffffffffff16815260200190815260200160002060008373ffffffffffffffffffffffffffffffffffffffff1673ffffffffffffffffffffffffffffffffffffffff16815260200190815260200160002060009054906101000a900460ff16905092915050565b611029611609565b600073ffffffffffffffffffffffffffffffffffffffff168173ffffffffffffffffffffffffffffffffffffffff161415611099576040517f08c379a0000000000000000000000000000000000000000000000000000000008152600401611090906138c0565b60405180910390fd5b6110a28161185e565b50565b60007f80ac58cd000000000000000000000000000000000000000000000000000000007bffffffffffffffffffffffffffffffffffffffffffffffffffffffff1916827bffffffffffffffffffffffffffffffffffffffffffffffffffffffff1916148061117057507f5b5e139f000000000000000000000000000000000000000000000000000000007bffffffffffffffffffffffffffffffffffffffffffffffffffffffff1916827bffffffffffffffffffffffffffffffffffffffffffffffffffffffff1916145b80611180575061117f82611d04565b5b9050919050565b60007f7965db0b000000000000000000000000000000000000000000000000000000007bffffffffffffffffffffffffffffffffffffffffffffffffffffffff1916827bffffffffffffffffffffffffffffffffffffffffffffffffffffffff191614806111fa57506111f9826110a5565b5b9050919050565b61120a81611d6e565b611249576040517f08c379a000000000000000000000000000000000000000000000000000000000815260040161124090613701565b60405180910390fd5b50565b600033905090565b816004600083815260200190815260200160002060006101000a81548173ffffffffffffffffffffffffffffffffffffffff021916908373ffffffffffffffffffffffffffffffffffffffff160217905550808273ffffffffffffffffffffffffffffffffffffffff166112c783610a80565b73ffffffffffffffffffffffffffffffffffffffff167f8c5be1e5ebec7d5bd14f71427d1e84f3dd0314c0f7b2291e5b200ac8c7c3b92560405160405180910390a45050565b60008061131983610a80565b90508073ffffffffffffffffffffffffffffffffffffffff168473ffffffffffffffffffffffffffffffffffffffff16148061135b575061135a8185610f8d565b5b8061139957508373ffffffffffffffffffffffffffffffffffffffff166113818461068c565b73ffffffffffffffffffffffffffffffffffffffff16145b91505092915050565b8273ffffffffffffffffffffffffffffffffffffffff166113c282610a80565b73ffffffffffffffffffffffffffffffffffffffff1614611418576040517f08c379a000000000000000000000000000000000000000000000000000000000815260040161140f90613952565b60405180910390fd5b600073ffffffffffffffffffffffffffffffffffffffff168273ffffffffffffffffffffffffffffffffffffffff161415611488576040517f08c379a000000000000000000000000000000000000000000000000000000000815260040161147f906139e4565b60405180910390fd5b611493838383611dda565b61149e600082611254565b6001600360008573ffffffffffffffffffffffffffffffffffffffff1673ffffffffffffffffffffffffffffffffffffffff16815260200190815260200160002060008282546114ee9190613a33565b925050819055506001600360008473ffffffffffffffffffffffffffffffffffffffff1673ffffffffffffffffffffffffffffffffffffffff16815260200190815260200160002060008282546115459190613a67565b92505081905550816002600083815260200190815260200160002060006101000a81548173ffffffffffffffffffffffffffffffffffffffff021916908373ffffffffffffffffffffffffffffffffffffffff160217905550808273ffffffffffffffffffffffffffffffffffffffff168473ffffffffffffffffffffffffffffffffffffffff167fddf252ad1be2c89b69c2b068fc378daa952ba7f163c4a11628f55a4df523b3ef60405160405180910390a4611604838383611ddf565b505050565b61161161124c565b73ffffffffffffffffffffffffffffffffffffffff1661162f610bfe565b73ffffffffffffffffffffffffffffffffffffffff1614611685576040517f08c379a000000000000000000000000000000000000000000000000000000000815260040161167c90613b09565b60405180910390fd5b565b6116988161169361124c565b611de4565b50565b6116a58282610c28565b6117785760016008600084815260200190815260200160002060000160008373ffffffffffffffffffffffffffffffffffffffff1673ffffffffffffffffffffffffffffffffffffffff16815260200190815260200160002060006101000a81548160ff02191690831515021790555061171d61124c565b73ffffffffffffffffffffffffffffffffffffffff168173ffffffffffffffffffffffffffffffffffffffff16837f2f8788117e7eff1d82e926ec794901d17c78024a50270940304540a733656f0d60405160405180910390a45b5050565b6117868282610c28565b1561185a5760006008600084815260200190815260200160002060000160008373ffffffffffffffffffffffffffffffffffffffff1673ffffffffffffffffffffffffffffffffffffffff16815260200190815260200160002060006101000a81548160ff0219169083151502179055506117ff61124c565b73ffffffffffffffffffffffffffffffffffffffff168173ffffffffffffffffffffffffffffffffffffffff16837ff6391f5c32d9c69d2a47ea670b442974b53935d1edc7fd64eb21e047a839171b60405160405180910390a45b5050565b6000600760009054906101000a900473ffffffffffffffffffffffffffffffffffffffff16905081600760006101000a81548173ffffffffffffffffffffffffffffffffffffffff021916908373ffffffffffffffffffffffffffffffffffffffff1602179055508173ffffffffffffffffffffffffffffffffffffffff168173ffffffffffffffffffffffffffffffffffffffff167f8be0079c531659141344cd1fd0a4f28419497f9722a3daafe3b4186f6b6457e060405160405180910390a35050565b60008061193083611e81565b905061198e818480606001906119469190613b29565b8080601f016020809104026020016040519081016040528093929190818152602001838380828437600081840152601f19601f82011690508083019250505050505050611f0c565b915050919050565b6119b0828260405180602001604052806000815250611f33565b5050565b6119bd82611d6e565b6119fc576040517f08c379a00000000000000000000000000000000000000000000000000000000081526004016119f390613bfe565b60405180910390fd5b80600660008481526020019081526020016000209080519060200190611a23929190612c13565b505050565b8173ffffffffffffffffffffffffffffffffffffffff168373ffffffffffffffffffffffffffffffffffffffff161415611a97576040517f08c379a0000000000000000000000000000000000000000000000000000000008152600401611a8e90613c6a565b60405180910390fd5b80600560008573ffffffffffffffffffffffffffffffffffffffff1673ffffffffffffffffffffffffffffffffffffffff16815260200190815260200160002060008473ffffffffffffffffffffffffffffffffffffffff1673ffffffffffffffffffffffffffffffffffffffff16815260200190815260200160002060006101000a81548160ff0219169083151502179055508173ffffffffffffffffffffffffffffffffffffffff168373ffffffffffffffffffffffffffffffffffffffff167f17307eab39ab6107e8899845ad3d59bd9653f200f220920489ca2b5937696c3183604051611b889190612d6a565b60405180910390a3505050565b611ba08484846113a2565b611bac84848484611f8e565b611beb576040517f08c379a0000000000000000000000000000000000000000000000000000000008152600401611be290613cfc565b60405180910390fd5b50505050565b6060611bfc82611201565b6000600660008481526020019081526020016000208054611c1c906133f5565b80601f0160208091040260200160405190810160405280929190818152602001828054611c48906133f5565b8015611c955780601f10611c6a57610100808354040283529160200191611c95565b820191906000526020600020905b815481529060010190602001808311611c7857829003601f168201915b505050505090506000611ca6612125565b9050600081511415611cbc578192505050611cff565b600082511115611cf1578082604051602001611cd9929190613d58565b60405160208183030381529060405292505050611cff565b611cfa8461213c565b925050505b919050565b60007f01ffc9a7000000000000000000000000000000000000000000000000000000007bffffffffffffffffffffffffffffffffffffffffffffffffffffffff1916827bffffffffffffffffffffffffffffffffffffffffffffffffffffffff1916149050919050565b60008073ffffffffffffffffffffffffffffffffffffffff166002600084815260200190815260200160002060009054906101000a900473ffffffffffffffffffffffffffffffffffffffff1673ffffffffffffffffffffffffffffffffffffffff1614159050919050565b505050565b505050565b611dee8282610c28565b611e7d57611e138173ffffffffffffffffffffffffffffffffffffffff1660146121a4565b611e218360001c60206121a4565b604051602001611e32929190613e14565b6040516020818303038152906040526040517f08c379a0000000000000000000000000000000000000000000000000000000008152600401611e749190612e1e565b60405180910390fd5b5050565b6000611f057f6147bbec56deddd046fc2492dd8031f77431a85e8170a387dea18a63c2234cc883600001358460200135858060400190611ec191906137c2565b604051611ecf929190613e73565b6040518091039020604051602001611eea9493929190613e8c565b604051602081830303815290604052805190602001206123e0565b9050919050565b6000806000611f1b85856123fa565b91509150611f288161244c565b819250505092915050565b611f3d8383612621565b611f4a6000848484611f8e565b611f89576040517f08c379a0000000000000000000000000000000000000000000000000000000008152600401611f8090613cfc565b60405180910390fd5b505050565b6000611faf8473ffffffffffffffffffffffffffffffffffffffff166127fb565b15612118578373ffffffffffffffffffffffffffffffffffffffff1663150b7a02611fd861124c565b8786866040518563ffffffff1660e01b8152600401611ffa9493929190613f26565b602060405180830381600087803b15801561201457600080fd5b505af192505050801561204557506040513d601f19601f820116820180604052508101906120429190613f87565b60015b6120c8573d8060008114612075576040519150601f19603f3d011682016040523d82523d6000602084013e61207a565b606091505b506000815114156120c0576040517f08c379a00000000000000000000000000000000000000000000000000000000081526004016120b790613cfc565b60405180910390fd5b805181602001fd5b63150b7a0260e01b7bffffffffffffffffffffffffffffffffffffffffffffffffffffffff1916817bffffffffffffffffffffffffffffffffffffffffffffffffffffffff19161491505061211d565b600190505b949350505050565b606060405180602001604052806000815250905090565b606061214782611201565b6000612151612125565b90506000815111612171576040518060200160405280600081525061219c565b8061217b8461281e565b60405160200161218c929190613d58565b6040516020818303038152906040525b915050919050565b6060600060028360026121b79190613fb4565b6121c19190613a67565b67ffffffffffffffff8111156121da576121d96131d8565b5b6040519080825280601f01601f19166020018201604052801561220c5781602001600182028036833780820191505090505b5090507f3000000000000000000000000000000000000000000000000000000000000000816000815181106122445761224361400e565b5b60200101907effffffffffffffffffffffffffffffffffffffffffffffffffffffffffffff1916908160001a9053507f7800000000000000000000000000000000000000000000000000000000000000816001815181106122a8576122a761400e565b5b60200101907effffffffffffffffffffffffffffffffffffffffffffffffffffffffffffff1916908160001a905350600060018460026122e89190613fb4565b6122f29190613a67565b90505b6001811115612392577f3031323334353637383961626364656600000000000000000000000000000000600f8616601081106123345761233361400e565b5b1a60f81b82828151811061234b5761234a61400e565b5b60200101907effffffffffffffffffffffffffffffffffffffffffffffffffffffffffffff1916908160001a905350600485901c94508061238b9061403d565b90506122f5565b50600084146123d6576040517f08c379a00000000000000000000000000000000000000000000000000000000081526004016123cd906140b3565b60405180910390fd5b8091505092915050565b60006123f36123ed61297f565b83612a99565b9050919050565b60008060418351141561243c5760008060006020860151925060408601519150606086015160001a905061243087828585612acc565b94509450505050612445565b60006002915091505b9250929050565b600060048111156124605761245f6140d3565b5b816004811115612473576124726140d3565b5b141561247e5761261e565b60016004811115612492576124916140d3565b5b8160048111156124a5576124a46140d3565b5b14156124e6576040517f08c379a00000000000000000000000000000000000000000000000000000000081526004016124dd9061414e565b60405180910390fd5b600260048111156124fa576124f96140d3565b5b81600481111561250d5761250c6140d3565b5b141561254e576040517f08c379a0000000000000000000000000000000000000000000000000000000008152600401612545906141ba565b60405180910390fd5b60036004811115612562576125616140d3565b5b816004811115612575576125746140d3565b5b14156125b6576040517f08c379a00000000000000000000000000000000000000000000000000000000081526004016125ad9061424c565b60405180910390fd5b6004808111156125c9576125c86140d3565b5b8160048111156125dc576125db6140d3565b5b141561261d576040517f08c379a0000000000000000000000000000000000000000000000000000000008152600401612614906142de565b60405180910390fd5b5b50565b600073ffffffffffffffffffffffffffffffffffffffff168273ffffffffffffffffffffffffffffffffffffffff161415612691576040517f08c379a00000000000000000000000000000000000000000000000000000000081526004016126889061434a565b60405180910390fd5b61269a81611d6e565b156126da576040517f08c379a00000000000000000000000000000000000000000000000000000000081526004016126d1906143b6565b60405180910390fd5b6126e660008383611dda565b6001600360008473ffffffffffffffffffffffffffffffffffffffff1673ffffffffffffffffffffffffffffffffffffffff16815260200190815260200160002060008282546127369190613a67565b92505081905550816002600083815260200190815260200160002060006101000a81548173ffffffffffffffffffffffffffffffffffffffff021916908373ffffffffffffffffffffffffffffffffffffffff160217905550808273ffffffffffffffffffffffffffffffffffffffff16600073ffffffffffffffffffffffffffffffffffffffff167fddf252ad1be2c89b69c2b068fc378daa952ba7f163c4a11628f55a4df523b3ef60405160405180910390a46127f760008383611ddf565b5050565b6000808273ffffffffffffffffffffffffffffffffffffffff163b119050919050565b60606000821415612866576040518060400160405280600181526020017f3000000000000000000000000000000000000000000000000000000000000000815250905061297a565b600082905060005b60008214612898578080612881906143d6565b915050600a82612891919061444e565b915061286e565b60008167ffffffffffffffff8111156128b4576128b36131d8565b5b6040519080825280601f01601f1916602001820160405280156128e65781602001600182028036833780820191505090505b5090505b60008514612973576001826128ff9190613a33565b9150600a8561290e919061447f565b603061291a9190613a67565b60f81b8183815181106129305761292f61400e565b5b60200101907effffffffffffffffffffffffffffffffffffffffffffffffffffffffffffff1916908160001a905350600a8561296c919061444e565b94506128ea565b8093505050505b919050565b60007f000000000000000000000000000000000000000000000000000000000000000073ffffffffffffffffffffffffffffffffffffffff163073ffffffffffffffffffffffffffffffffffffffff161480156129fb57507f000000000000000000000000000000000000000000000000000000000000000046145b15612a28577f00000000000000000000000000000000000000000000000000000000000000009050612a96565b612a937f00000000000000000000000000000000000000000000000000000000000000007f00000000000000000000000000000000000000000000000000000000000000007f0000000000000000000000000000000000000000000000000000000000000000612bd9565b90505b90565b60008282604051602001612aae92919061451d565b60405160208183030381529060405280519060200120905092915050565b6000807f7fffffffffffffffffffffffffffffff5d576e7357a4501ddfe92f46681b20a08360001c1115612b07576000600391509150612bd0565b601b8560ff1614158015612b1f5750601c8560ff1614155b15612b31576000600491509150612bd0565b600060018787878760405160008152602001604052604051612b569493929190614570565b6020604051602081039080840390855afa158015612b78573d6000803e3d6000fd5b505050602060405103519050600073ffffffffffffffffffffffffffffffffffffffff168173ffffffffffffffffffffffffffffffffffffffff161415612bc757600060019250925050612bd0565b80600092509250505b94509492505050565b60008383834630604051602001612bf49594939291906145b5565b6040516020818303038152906040528051906020012090509392505050565b828054612c1f906133f5565b90600052602060002090601f016020900481019282612c415760008555612c88565b82601f10612c5a57805160ff1916838001178555612c88565b82800160010185558215612c88579182015b82811115612c87578251825591602001919060010190612c6c565b5b509050612c959190612c99565b5090565b5b80821115612cb2576000816000905550600101612c9a565b5090565b6000604051905090565b600080fd5b600080fd5b60007fffffffff0000000000000000000000000000000000000000000000000000000082169050919050565b612cff81612cca565b8114612d0a57600080fd5b50565b600081359050612d1c81612cf6565b92915050565b600060208284031215612d3857612d37612cc0565b5b6000612d4684828501612d0d565b91505092915050565b60008115159050919050565b612d6481612d4f565b82525050565b6000602082019050612d7f6000830184612d5b565b92915050565b600081519050919050565b600082825260208201905092915050565b60005b83811015612dbf578082015181840152602081019050612da4565b83811115612dce576000848401525b50505050565b6000601f19601f8301169050919050565b6000612df082612d85565b612dfa8185612d90565b9350612e0a818560208601612da1565b612e1381612dd4565b840191505092915050565b60006020820190508181036000830152612e388184612de5565b905092915050565b6000819050919050565b612e5381612e40565b8114612e5e57600080fd5b50565b600081359050612e7081612e4a565b92915050565b600060208284031215612e8c57612e8b612cc0565b5b6000612e9a84828501612e61565b91505092915050565b600073ffffffffffffffffffffffffffffffffffffffff82169050919050565b6000612ece82612ea3565b9050919050565b612ede81612ec3565b82525050565b6000602082019050612ef96000830184612ed5565b92915050565b612f0881612ec3565b8114612f1357600080fd5b50565b600081359050612f2581612eff565b92915050565b60008060408385031215612f4257612f41612cc0565b5b6000612f5085828601612f16565b9250506020612f6185828601612e61565b9150509250929050565b600080600060608486031215612f8457612f83612cc0565b5b6000612f9286828701612f16565b9350506020612fa386828701612f16565b9250506040612fb486828701612e61565b9150509250925092565b6000819050919050565b612fd181612fbe565b8114612fdc57600080fd5b50565b600081359050612fee81612fc8565b92915050565b60006020828403121561300a57613009612cc0565b5b600061301884828501612fdf565b91505092915050565b61302a81612fbe565b82525050565b60006020820190506130456000830184613021565b92915050565b6000806040838503121561306257613061612cc0565b5b600061307085828601612fdf565b925050602061308185828601612f16565b9150509250929050565b6000602082840312156130a1576130a0612cc0565b5b60006130af84828501612f16565b91505092915050565b6130c181612e40565b82525050565b60006020820190506130dc60008301846130b8565b92915050565b600080fd5b6000608082840312156130fd576130fc6130e2565b5b81905092915050565b6000806040838503121561311d5761311c612cc0565b5b600061312b85828601612f16565b925050602083013567ffffffffffffffff81111561314c5761314b612cc5565b5b613158858286016130e7565b9150509250929050565b61316b81612d4f565b811461317657600080fd5b50565b60008135905061318881613162565b92915050565b600080604083850312156131a5576131a4612cc0565b5b60006131b385828601612f16565b92505060206131c485828601613179565b9150509250929050565b600080fd5b600080fd5b7f4e487b7100000000000000000000000000000000000000000000000000000000600052604160045260246000fd5b61321082612dd4565b810181811067ffffffffffffffff8211171561322f5761322e6131d8565b5b80604052505050565b6000613242612cb6565b905061324e8282613207565b919050565b600067ffffffffffffffff82111561326e5761326d6131d8565b5b61327782612dd4565b9050602081019050919050565b82818337600083830152505050565b60006132a66132a184613253565b613238565b9050828152602081018484840111156132c2576132c16131d3565b5b6132cd848285613284565b509392505050565b600082601f8301126132ea576132e96131ce565b5b81356132fa848260208601613293565b91505092915050565b6000806000806080858703121561331d5761331c612cc0565b5b600061332b87828801612f16565b945050602061333c87828801612f16565b935050604061334d87828801612e61565b925050606085013567ffffffffffffffff81111561336e5761336d612cc5565b5b61337a878288016132d5565b91505092959194509250565b6000806040838503121561339d5761339c612cc0565b5b60006133ab85828601612f16565b92505060206133bc85828601612f16565b9150509250929050565b7f4e487b7100000000000000000000000000000000000000000000000000000000600052602260045260246000fd5b6000600282049050600182168061340d57607f821691505b60208210811415613421576134206133c6565b5b50919050565b7f4552433732313a20617070726f76616c20746f2063757272656e74206f776e6560008201527f7200000000000000000000000000000000000000000000000000000000000000602082015250565b6000613483602183612d90565b915061348e82613427565b604082019050919050565b600060208201905081810360008301526134b281613476565b9050919050565b7f4552433732313a20617070726f76652063616c6c6572206973206e6f7420746f60008201527f6b656e206f776e6572206e6f7220617070726f76656420666f7220616c6c0000602082015250565b6000613515603e83612d90565b9150613520826134b9565b604082019050919050565b6000602082019050818103600083015261354481613508565b9050919050565b7f4552433732313a2063616c6c6572206973206e6f7420746f6b656e206f776e6560008201527f72206e6f7220617070726f766564000000000000000000000000000000000000602082015250565b60006135a7602e83612d90565b91506135b28261354b565b604082019050919050565b600060208201905081810360008301526135d68161359a565b9050919050565b600081905092915050565b50565b60006135f86000836135dd565b9150613603826135e8565b600082019050919050565b6000613619826135eb565b9150819050919050565b7f416363657373436f6e74726f6c3a2063616e206f6e6c792072656e6f756e636560008201527f20726f6c657320666f722073656c660000000000000000000000000000000000602082015250565b600061367f602f83612d90565b915061368a82613623565b604082019050919050565b600060208201905081810360008301526136ae81613672565b9050919050565b7f4552433732313a20696e76616c696420746f6b656e2049440000000000000000600082015250565b60006136eb601883612d90565b91506136f6826136b5565b602082019050919050565b6000602082019050818103600083015261371a816136de565b9050919050565b7f4552433732313a2061646472657373207a65726f206973206e6f74206120766160008201527f6c6964206f776e65720000000000000000000000000000000000000000000000602082015250565b600061377d602983612d90565b915061378882613721565b604082019050919050565b600060208201905081810360008301526137ac81613770565b9050919050565b600080fd5b600080fd5b600080fd5b600080833560016020038436030381126137df576137de6137b3565b5b80840192508235915067ffffffffffffffff821115613801576138006137b8565b5b60208301925060018202360383131561381d5761381c6137bd565b5b509250929050565b600060408201905061383a6000830185612ed5565b61384760208301846130b8565b9392505050565b7f4f776e61626c653a206e6577206f776e657220697320746865207a65726f206160008201527f6464726573730000000000000000000000000000000000000000000000000000602082015250565b60006138aa602683612d90565b91506138b58261384e565b604082019050919050565b600060208201905081810360008301526138d98161389d565b9050919050565b7f4552433732313a207472616e736665722066726f6d20696e636f72726563742060008201527f6f776e6572000000000000000000000000000000000000000000000000000000602082015250565b600061393c602583612d90565b9150613947826138e0565b604082019050919050565b6000602082019050818103600083015261396b8161392f565b9050919050565b7f4552433732313a207472616e7366657220746f20746865207a65726f2061646460008201527f7265737300000000000000000000000000000000000000000000000000000000602082015250565b60006139ce602483612d90565b91506139d982613972565b604082019050919050565b600060208201905081810360008301526139fd816139c1565b9050919050565b7f4e487b7100000000000000000000000000000000000000000000000000000000600052601160045260246000fd5b6000613a3e82612e40565b9150613a4983612e40565b925082821015613a5c57613a5b613a04565b5b828203905092915050565b6000613a7282612e40565b9150613a7d83612e40565b9250827fffffffffffffffffffffffffffffffffffffffffffffffffffffffffffffffff03821115613ab257613ab1613a04565b5b828201905092915050565b7f4f776e61626c653a2063616c6c6572206973206e6f7420746865206f776e6572600082015250565b6000613af3602083612d90565b9150613afe82613abd565b602082019050919050565b60006020820190508181036000830152613b2281613ae6565b9050919050565b60008083356001602003843603038112613b4657613b456137b3565b5b80840192508235915067ffffffffffffffff821115613b6857613b676137b8565b5b602083019250600182023603831315613b8457613b836137bd565b5b509250929050565b7f45524337323155524953746f726167653a2055524920736574206f66206e6f6e60008201527f6578697374656e7420746f6b656e000000000000000000000000000000000000602082015250565b6000613be8602e83612d90565b9150613bf382613b8c565b604082019050919050565b60006020820190508181036000830152613c1781613bdb565b9050919050565b7f4552433732313a20617070726f766520746f2063616c6c657200000000000000600082015250565b6000613c54601983612d90565b9150613c5f82613c1e565b602082019050919050565b60006020820190508181036000830152613c8381613c47565b9050919050565b7f4552433732313a207472616e7366657220746f206e6f6e20455243373231526560008201527f63656976657220696d706c656d656e7465720000000000000000000000000000602082015250565b6000613ce6603283612d90565b9150613cf182613c8a565b604082019050919050565b60006020820190508181036000830152613d1581613cd9565b9050919050565b600081905092915050565b6000613d3282612d85565b613d3c8185613d1c565b9350613d4c818560208601612da1565b80840191505092915050565b6000613d648285613d27565b9150613d708284613d27565b91508190509392505050565b7f416363657373436f6e74726f6c3a206163636f756e7420000000000000000000600082015250565b6000613db2601783613d1c565b9150613dbd82613d7c565b601782019050919050565b7f206973206d697373696e6720726f6c6520000000000000000000000000000000600082015250565b6000613dfe601183613d1c565b9150613e0982613dc8565b601182019050919050565b6000613e1f82613da5565b9150613e2b8285613d27565b9150613e3682613df1565b9150613e428284613d27565b91508190509392505050565b6000613e5a83856135dd565b9350613e67838584613284565b82840190509392505050565b6000613e80828486613e4e565b91508190509392505050565b6000608082019050613ea16000830187613021565b613eae60208301866130b8565b613ebb60408301856130b8565b613ec86060830184613021565b95945050505050565b600081519050919050565b600082825260208201905092915050565b6000613ef882613ed1565b613f028185613edc565b9350613f12818560208601612da1565b613f1b81612dd4565b840191505092915050565b6000608082019050613f3b6000830187612ed5565b613f486020830186612ed5565b613f5560408301856130b8565b8181036060830152613f678184613eed565b905095945050505050565b600081519050613f8181612cf6565b92915050565b600060208284031215613f9d57613f9c612cc0565b5b6000613fab84828501613f72565b91505092915050565b6000613fbf82612e40565b9150613fca83612e40565b9250817fffffffffffffffffffffffffffffffffffffffffffffffffffffffffffffffff048311821515161561400357614002613a04565b5b828202905092915050565b7f4e487b7100000000000000000000000000000000000000000000000000000000600052603260045260246000fd5b600061404882612e40565b9150600082141561405c5761405b613a04565b5b600182039050919050565b7f537472696e67733a20686578206c656e67746820696e73756666696369656e74600082015250565b600061409d602083612d90565b91506140a882614067565b602082019050919050565b600060208201905081810360008301526140cc81614090565b9050919050565b7f4e487b7100000000000000000000000000000000000000000000000000000000600052602160045260246000fd5b7f45434453413a20696e76616c6964207369676e61747572650000000000000000600082015250565b6000614138601883612d90565b915061414382614102565b602082019050919050565b600060208201905081810360008301526141678161412b565b9050919050565b7f45434453413a20696e76616c6964207369676e6174757265206c656e67746800600082015250565b60006141a4601f83612d90565b91506141af8261416e565b602082019050919050565b600060208201905081810360008301526141d381614197565b9050919050565b7f45434453413a20696e76616c6964207369676e6174757265202773272076616c60008201527f7565000000000000000000000000000000000000000000000000000000000000602082015250565b6000614236602283612d90565b9150614241826141da565b604082019050919050565b6000602082019050818103600083015261426581614229565b9050919050565b7f45434453413a20696e76616c6964207369676e6174757265202776272076616c60008201527f7565000000000000000000000000000000000000000000000000000000000000602082015250565b60006142c8602283612d90565b91506142d38261426c565b604082019050919050565b600060208201905081810360008301526142f7816142bb565b9050919050565b7f4552433732313a206d696e7420746f20746865207a65726f2061646472657373600082015250565b6000614334602083612d90565b915061433f826142fe565b602082019050919050565b6000602082019050818103600083015261436381614327565b9050919050565b7f4552433732313a20746f6b656e20616c7265616479206d696e74656400000000600082015250565b60006143a0601c83612d90565b91506143ab8261436a565b602082019050919050565b600060208201905081810360008301526143cf81614393565b9050919050565b60006143e182612e40565b91507fffffffffffffffffffffffffffffffffffffffffffffffffffffffffffffffff82141561441457614413613a04565b5b600182019050919050565b7f4e487b7100000000000000000000000000000000000000000000000000000000600052601260045260246000fd5b600061445982612e40565b915061446483612e40565b9250826144745761447361441f565b5b828204905092915050565b600061448a82612e40565b915061449583612e40565b9250826144a5576144a461441f565b5b828206905092915050565b7f1901000000000000000000000000000000000000000000000000000000000000600082015250565b60006144e6600283613d1c565b91506144f1826144b0565b600282019050919050565b6000819050919050565b61451761451282612fbe565b6144fc565b82525050565b6000614528826144d9565b91506145348285614506565b6020820191506145448284614506565b6020820191508190509392505050565b600060ff82169050919050565b61456a81614554565b82525050565b60006080820190506145856000830187613021565b6145926020830186614561565b61459f6040830185613021565b6145ac6060830184613021565b95945050505050565b600060a0820190506145ca6000830188613021565b6145d76020830187613021565b6145e46040830186613021565b6145f160608301856130b8565b6145fe6080830184612ed5565b969550505050505056fea26469706673582212206968b0d832b79fd5abfe8f5f794a205d0d13fc7e0e1dc86ab4aae78b7bcddb5864736f6c63430008090033",
  "devdoc": {
    "kind": "dev",
    "methods": {
      "approve(address,uint256)": {
        "details": "See {IERC721-approve}."
      },
      "balanceOf(address)": {
        "details": "See {IERC721-balanceOf}."
      },
      "getApproved(uint256)": {
        "details": "See {IERC721-getApproved}."
      },
      "getRoleAdmin(bytes32)": {
        "details": "Returns the admin role that controls `role`. See {grantRole} and {revokeRole}. To change a role's admin, use {_setRoleAdmin}."
      },
      "grantRole(bytes32,address)": {
        "details": "Grants `role` to `account`. If `account` had not been already granted `role`, emits a {RoleGranted} event. Requirements: - the caller must have ``role``'s admin role. May emit a {RoleGranted} event."
      },
      "hasRole(bytes32,address)": {
        "details": "Returns `true` if `account` has been granted `role`."
      },
      "isApprovedForAll(address,address)": {
        "details": "See {IERC721-isApprovedForAll}."
      },
      "name()": {
        "details": "See {IERC721Metadata-name}."
      },
      "owner()": {
        "details": "Returns the address of the current owner."
      },
      "ownerOf(uint256)": {
        "details": "See {IERC721-ownerOf}."
      },
      "renounceOwnership()": {
        "details": "Leaves the contract without owner. It will not be possible to call `onlyOwner` functions anymore. Can only be called by the current owner. NOTE: Renouncing ownership will leave the contract without an owner, thereby removing any functionality that is only available to the owner."
      },
      "renounceRole(bytes32,address)": {
        "details": "Revokes `role` from the calling account. Roles are often managed via {grantRole} and {revokeRole}: this function's purpose is to provide a mechanism for accounts to lose their privileges if they are compromised (such as when a trusted device is misplaced). If the calling account had been revoked `role`, emits a {RoleRevoked} event. Requirements: - the caller must be `account`. May emit a {RoleRevoked} event."
      },
      "revokeRole(bytes32,address)": {
        "details": "Revokes `role` from `account`. If `account` had been granted `role`, emits a {RoleRevoked} event. Requirements: - the caller must have ``role``'s admin role. May emit a {RoleRevoked} event."
      },
      "safeTransferFrom(address,address,uint256)": {
        "details": "See {IERC721-safeTransferFrom}."
      },
      "safeTransferFrom(address,address,uint256,bytes)": {
        "details": "See {IERC721-safeTransferFrom}."
      },
      "setApprovalForAll(address,bool)": {
        "details": "See {IERC721-setApprovalForAll}."
      },
      "symbol()": {
        "details": "See {IERC721Metadata-symbol}."
      },
      "transferFrom(address,address,uint256)": {
        "details": "See {IERC721-transferFrom}."
      },
      "transferOwnership(address)": {
        "details": "Transfers ownership of the contract to a new account (`newOwner`). Can only be called by the current owner."
      }
    },
    "version": 1
  },
  "userdoc": {
    "kind": "user",
    "methods": {},
    "version": 1
  },
  "storageLayout": {
    "storage": [
      {
        "astId": 531,
        "contract": "contracts/LazyMint.sol:LazyMint",
        "label": "_name",
        "offset": 0,
        "slot": "0",
        "type": "t_string_storage"
      },
      {
        "astId": 533,
        "contract": "contracts/LazyMint.sol:LazyMint",
        "label": "_symbol",
        "offset": 0,
        "slot": "1",
        "type": "t_string_storage"
      },
      {
        "astId": 537,
        "contract": "contracts/LazyMint.sol:LazyMint",
        "label": "_owners",
        "offset": 0,
        "slot": "2",
        "type": "t_mapping(t_uint256,t_address)"
      },
      {
        "astId": 541,
        "contract": "contracts/LazyMint.sol:LazyMint",
        "label": "_balances",
        "offset": 0,
        "slot": "3",
        "type": "t_mapping(t_address,t_uint256)"
      },
      {
        "astId": 545,
        "contract": "contracts/LazyMint.sol:LazyMint",
        "label": "_tokenApprovals",
        "offset": 0,
        "slot": "4",
        "type": "t_mapping(t_uint256,t_address)"
      },
      {
        "astId": 551,
        "contract": "contracts/LazyMint.sol:LazyMint",
        "label": "_operatorApprovals",
        "offset": 0,
        "slot": "5",
        "type": "t_mapping(t_address,t_mapping(t_address,t_bool))"
      },
      {
        "astId": 1519,
        "contract": "contracts/LazyMint.sol:LazyMint",
        "label": "_tokenURIs",
        "offset": 0,
        "slot": "6",
        "type": "t_mapping(t_uint256,t_string_storage)"
      },
      {
        "astId": 400,
        "contract": "contracts/LazyMint.sol:LazyMint",
        "label": "_owner",
        "offset": 0,
        "slot": "7",
        "type": "t_address"
      },
      {
        "astId": 24,
        "contract": "contracts/LazyMint.sol:LazyMint",
        "label": "_roles",
        "offset": 0,
        "slot": "8",
        "type": "t_mapping(t_bytes32,t_struct(RoleData)19_storage)"
      }
    ],
    "types": {
      "t_address": {
        "encoding": "inplace",
        "label": "address",
        "numberOfBytes": "20"
      },
      "t_bool": {
        "encoding": "inplace",
        "label": "bool",
        "numberOfBytes": "1"
      },
      "t_bytes32": {
        "encoding": "inplace",
        "label": "bytes32",
        "numberOfBytes": "32"
      },
      "t_mapping(t_address,t_bool)": {
        "encoding": "mapping",
        "key": "t_address",
        "label": "mapping(address => bool)",
        "numberOfBytes": "32",
        "value": "t_bool"
      },
      "t_mapping(t_address,t_mapping(t_address,t_bool))": {
        "encoding": "mapping",
        "key": "t_address",
        "label": "mapping(address => mapping(address => bool))",
        "numberOfBytes": "32",
        "value": "t_mapping(t_address,t_bool)"
      },
      "t_mapping(t_address,t_uint256)": {
        "encoding": "mapping",
        "key": "t_address",
        "label": "mapping(address => uint256)",
        "numberOfBytes": "32",
        "value": "t_uint256"
      },
      "t_mapping(t_bytes32,t_struct(RoleData)19_storage)": {
        "encoding": "mapping",
        "key": "t_bytes32",
        "label": "mapping(bytes32 => struct AccessControl.RoleData)",
        "numberOfBytes": "32",
        "value": "t_struct(RoleData)19_storage"
      },
      "t_mapping(t_uint256,t_address)": {
        "encoding": "mapping",
        "key": "t_uint256",
        "label": "mapping(uint256 => address)",
        "numberOfBytes": "32",
        "value": "t_address"
      },
      "t_mapping(t_uint256,t_string_storage)": {
        "encoding": "mapping",
        "key": "t_uint256",
        "label": "mapping(uint256 => string)",
        "numberOfBytes": "32",
        "value": "t_string_storage"
      },
      "t_string_storage": {
        "encoding": "bytes",
        "label": "string",
        "numberOfBytes": "32"
      },
      "t_struct(RoleData)19_storage": {
        "encoding": "inplace",
        "label": "struct AccessControl.RoleData",
        "members": [
          {
            "astId": 16,
            "contract": "contracts/LazyMint.sol:LazyMint",
            "label": "members",
            "offset": 0,
            "slot": "0",
            "type": "t_mapping(t_address,t_bool)"
          },
          {
            "astId": 18,
            "contract": "contracts/LazyMint.sol:LazyMint",
            "label": "adminRole",
            "offset": 0,
            "slot": "1",
            "type": "t_bytes32"
          }
        ],
        "numberOfBytes": "64"
      },
      "t_uint256": {
        "encoding": "inplace",
        "label": "uint256",
        "numberOfBytes": "32"
      }
    }
  }
}